{
  "_format": "hh-sol-artifact-1",
  "contractName": "LandRegistry",
  "sourceName": "contracts/LandRegistry.sol",
  "abi": [
    {
      "inputs": [],
      "stateMutability": "nonpayable",
      "type": "constructor"
    },
    {
      "anonymous": false,
      "inputs": [
        {
          "indexed": false,
          "internalType": "uint256",
          "name": "landId",
          "type": "uint256"
        },
        {
          "indexed": true,
          "internalType": "address",
          "name": "owner",
          "type": "address"
        }
      ],
      "name": "LandRegistered",
      "type": "event"
    },
    {
      "anonymous": false,
      "inputs": [
        {
          "indexed": false,
          "internalType": "uint256",
          "name": "landId",
          "type": "uint256"
        },
        {
          "indexed": true,
          "internalType": "address",
          "name": "newOwner",
          "type": "address"
        }
      ],
      "name": "LandTransferred",
      "type": "event"
    },
    {
      "anonymous": false,
      "inputs": [
        {
          "indexed": false,
          "internalType": "uint256",
          "name": "landId",
          "type": "uint256"
        }
      ],
      "name": "LandVerified",
      "type": "event"
    },
    {
      "inputs": [],
      "name": "admin",
      "outputs": [
        {
          "internalType": "address",
          "name": "",
          "type": "address"
        }
      ],
      "stateMutability": "view",
      "type": "function"
    },
    {
      "inputs": [
        {
          "internalType": "uint256",
          "name": "landId",
          "type": "uint256"
        }
      ],
      "name": "getLand",
      "outputs": [
        {
          "internalType": "uint256",
          "name": "",
          "type": "uint256"
        },
        {
          "internalType": "address",
          "name": "",
          "type": "address"
        },
        {
          "internalType": "string",
          "name": "",
          "type": "string"
        },
        {
          "internalType": "string",
          "name": "",
          "type": "string"
        },
        {
          "internalType": "bool",
          "name": "",
          "type": "bool"
        }
      ],
      "stateMutability": "view",
      "type": "function"
    },
    {
      "inputs": [
        {
          "internalType": "uint256",
          "name": "",
          "type": "uint256"
        }
      ],
      "name": "lands",
      "outputs": [
        {
          "internalType": "uint256",
          "name": "landId",
          "type": "uint256"
        },
        {
          "internalType": "address",
          "name": "owner",
          "type": "address"
        },
        {
          "internalType": "string",
          "name": "location",
          "type": "string"
        },
        {
          "internalType": "string",
          "name": "documentCID",
          "type": "string"
        },
        {
          "internalType": "bool",
          "name": "isVerified",
          "type": "bool"
        }
      ],
      "stateMutability": "view",
      "type": "function"
    },
    {
      "inputs": [
        {
          "internalType": "uint256",
          "name": "landId",
          "type": "uint256"
        },
        {
          "internalType": "address",
          "name": "owner",
          "type": "address"
        },
        {
          "internalType": "string",
          "name": "location",
          "type": "string"
        },
        {
          "internalType": "string",
          "name": "documentCID",
          "type": "string"
        }
      ],
      "name": "registerLand",
      "outputs": [],
      "stateMutability": "nonpayable",
      "type": "function"
    },
    {
      "inputs": [
        {
          "internalType": "uint256",
          "name": "landId",
          "type": "uint256"
        },
        {
          "internalType": "address",
          "name": "newOwner",
          "type": "address"
        }
      ],
      "name": "transferLand",
      "outputs": [],
      "stateMutability": "nonpayable",
      "type": "function"
    },
    {
      "inputs": [
        {
          "internalType": "uint256",
          "name": "landId",
          "type": "uint256"
        }
      ],
      "name": "verifyLand",
      "outputs": [],
      "stateMutability": "nonpayable",
      "type": "function"
    }
  ],
  "bytecode": "0x608060405234801561001057600080fd5b50336000806101000a81548173ffffffffffffffffffffffffffffffffffffffff021916908373ffffffffffffffffffffffffffffffffffffffff16021790555061122b806100606000396000f3fe608060405234801561001057600080fd5b50600436106100625760003560e01c8063c798ff7d14610067578063e261f1e514610083578063f02dd53f146100b7578063f4a231d6146100eb578063f851a44014610107578063f9c43bdf14610125575b600080fd5b610081600480360381019061007c9190610a32565b610141565b005b61009d60048036038101906100989190610a72565b61028e565b6040516100ae959493929190610b68565b60405180910390f35b6100d160048036038101906100cc9190610a72565b610401565b6040516100e2959493929190610b68565b60405180910390f35b61010560048036038101906101009190610cfe565b6105f6565b005b61010f610870565b60405161011c9190610d9d565b60405180910390f35b61013f600480360381019061013a9190610a72565b610894565b005b816001600082815260200190815260200160002060010160009054906101000a900473ffffffffffffffffffffffffffffffffffffffff1673ffffffffffffffffffffffffffffffffffffffff163373ffffffffffffffffffffffffffffffffffffffff16146101e6576040517f08c379a00000000000000000000000000000000000000000000000000000000081526004016101dd90610e04565b60405180910390fd5b816001600085815260200190815260200160002060010160006101000a81548173ffffffffffffffffffffffffffffffffffffffff021916908373ffffffffffffffffffffffffffffffffffffffff1602179055508173ffffffffffffffffffffffffffffffffffffffff167fcd35184c0567e166939f78d483095b2180dd0063b3e279052bb38167212432da846040516102819190610e24565b60405180910390a2505050565b60016020528060005260406000206000915090508060000154908060010160009054906101000a900473ffffffffffffffffffffffffffffffffffffffff16908060020180546102dd90610e6e565b80601f016020809104026020016040519081016040528092919081815260200182805461030990610e6e565b80156103565780601f1061032b57610100808354040283529160200191610356565b820191906000526020600020905b81548152906001019060200180831161033957829003601f168201915b50505050509080600301805461036b90610e6e565b80601f016020809104026020016040519081016040528092919081815260200182805461039790610e6e565b80156103e45780601f106103b9576101008083540402835291602001916103e4565b820191906000526020600020905b8154815290600101906020018083116103c757829003601f168201915b5050505050908060040160009054906101000a900460ff16905085565b600080606080600080600160008881526020019081526020016000206040518060a0016040529081600082015481526020016001820160009054906101000a900473ffffffffffffffffffffffffffffffffffffffff1673ffffffffffffffffffffffffffffffffffffffff1673ffffffffffffffffffffffffffffffffffffffff16815260200160028201805461049890610e6e565b80601f01602080910402602001604051908101604052809291908181526020018280546104c490610e6e565b80156105115780601f106104e657610100808354040283529160200191610511565b820191906000526020600020905b8154815290600101906020018083116104f457829003601f168201915b5050505050815260200160038201805461052a90610e6e565b80601f016020809104026020016040519081016040528092919081815260200182805461055690610e6e565b80156105a35780601f10610578576101008083540402835291602001916105a3565b820191906000526020600020905b81548152906001019060200180831161058657829003601f168201915b505050505081526020016004820160009054906101000a900460ff161515151581525050905080600001518160200151826040015183606001518460800151955095509550955095505091939590929450565b60008054906101000a900473ffffffffffffffffffffffffffffffffffffffff1673ffffffffffffffffffffffffffffffffffffffff163373ffffffffffffffffffffffffffffffffffffffff1614610684576040517f08c379a000000000000000000000000000000000000000000000000000000000815260040161067b90610eeb565b60405180910390fd5b600073ffffffffffffffffffffffffffffffffffffffff166001600086815260200190815260200160002060010160009054906101000a900473ffffffffffffffffffffffffffffffffffffffff1673ffffffffffffffffffffffffffffffffffffffff1614610729576040517f08c379a000000000000000000000000000000000000000000000000000000000815260040161072090610f57565b60405180910390fd5b6040518060a001604052808581526020018473ffffffffffffffffffffffffffffffffffffffff16815260200183815260200182815260200160001515815250600160008681526020019081526020016000206000820151816000015560208201518160010160006101000a81548173ffffffffffffffffffffffffffffffffffffffff021916908373ffffffffffffffffffffffffffffffffffffffff16021790555060408201518160020190816107e29190611123565b5060608201518160030190816107f89190611123565b5060808201518160040160006101000a81548160ff0219169083151502179055509050508273ffffffffffffffffffffffffffffffffffffffff167fcb4990052f95f6057496d19524f6c3163f50af9f33f2c15b092928e03414323e856040516108629190610e24565b60405180910390a250505050565b60008054906101000a900473ffffffffffffffffffffffffffffffffffffffff1681565b60008054906101000a900473ffffffffffffffffffffffffffffffffffffffff1673ffffffffffffffffffffffffffffffffffffffff163373ffffffffffffffffffffffffffffffffffffffff1614610922576040517f08c379a000000000000000000000000000000000000000000000000000000000815260040161091990610eeb565b60405180910390fd5b600180600083815260200190815260200160002060040160006101000a81548160ff0219169083151502179055507f339a5d26292b459dbd1a911e53069f56bd3610e5ca60a312043fc90189c388bf8160405161097f9190610e24565b60405180910390a150565b6000604051905090565b600080fd5b600080fd5b6000819050919050565b6109b18161099e565b81146109bc57600080fd5b50565b6000813590506109ce816109a8565b92915050565b600073ffffffffffffffffffffffffffffffffffffffff82169050919050565b60006109ff826109d4565b9050919050565b610a0f816109f4565b8114610a1a57600080fd5b50565b600081359050610a2c81610a06565b92915050565b60008060408385031215610a4957610a48610994565b5b6000610a57858286016109bf565b9250506020610a6885828601610a1d565b9150509250929050565b600060208284031215610a8857610a87610994565b5b6000610a96848285016109bf565b91505092915050565b610aa88161099e565b82525050565b610ab7816109f4565b82525050565b600081519050919050565b600082825260208201905092915050565b60005b83811015610af7578082015181840152602081019050610adc565b60008484015250505050565b6000601f19601f8301169050919050565b6000610b1f82610abd565b610b298185610ac8565b9350610b39818560208601610ad9565b610b4281610b03565b840191505092915050565b60008115159050919050565b610b6281610b4d565b82525050565b600060a082019050610b7d6000830188610a9f565b610b8a6020830187610aae565b8181036040830152610b9c8186610b14565b90508181036060830152610bb08185610b14565b9050610bbf6080830184610b59565b9695505050505050565b600080fd5b600080fd5b7f4e487b7100000000000000000000000000000000000000000000000000000000600052604160045260246000fd5b610c0b82610b03565b810181811067ffffffffffffffff82111715610c2a57610c29610bd3565b5b80604052505050565b6000610c3d61098a565b9050610c498282610c02565b919050565b600067ffffffffffffffff821115610c6957610c68610bd3565b5b610c7282610b03565b9050602081019050919050565b82818337600083830152505050565b6000610ca1610c9c84610c4e565b610c33565b905082815260208101848484011115610cbd57610cbc610bce565b5b610cc8848285610c7f565b509392505050565b600082601f830112610ce557610ce4610bc9565b5b8135610cf5848260208601610c8e565b91505092915050565b60008060008060808587031215610d1857610d17610994565b5b6000610d26878288016109bf565b9450506020610d3787828801610a1d565b935050604085013567ffffffffffffffff811115610d5857610d57610999565b5b610d6487828801610cd0565b925050606085013567ffffffffffffffff811115610d8557610d84610999565b5b610d9187828801610cd0565b91505092959194509250565b6000602082019050610db26000830184610aae565b92915050565b7f4e6f7420746865206c616e64206f776e65720000000000000000000000000000600082015250565b6000610dee601283610ac8565b9150610df982610db8565b602082019050919050565b60006020820190508181036000830152610e1d81610de1565b9050919050565b6000602082019050610e396000830184610a9f565b92915050565b7f4e487b7100000000000000000000000000000000000000000000000000000000600052602260045260246000fd5b60006002820490506001821680610e8657607f821691505b602082108103610e9957610e98610e3f565b5b50919050565b7f4e6f7420616e2061646d696e0000000000000000000000000000000000000000600082015250565b6000610ed5600c83610ac8565b9150610ee082610e9f565b602082019050919050565b60006020820190508181036000830152610f0481610ec8565b9050919050565b7f4c616e6420616c72656164792072656769737465726564000000000000000000600082015250565b6000610f41601783610ac8565b9150610f4c82610f0b565b602082019050919050565b60006020820190508181036000830152610f7081610f34565b9050919050565b60008190508160005260206000209050919050565b60006020601f8301049050919050565b600082821b905092915050565b600060088302610fd97fffffffffffffffffffffffffffffffffffffffffffffffffffffffffffffffff82610f9c565b610fe38683610f9c565b95508019841693508086168417925050509392505050565b6000819050919050565b600061102061101b6110168461099e565b610ffb565b61099e565b9050919050565b6000819050919050565b61103a83611005565b61104e61104682611027565b848454610fa9565b825550505050565b600090565b611063611056565b61106e818484611031565b505050565b5b818110156110925761108760008261105b565b600181019050611074565b5050565b601f8211156110d7576110a881610f77565b6110b184610f8c565b810160208510156110c0578190505b6110d46110cc85610f8c565b830182611073565b50505b505050565b600082821c905092915050565b60006110fa600019846008026110dc565b1980831691505092915050565b600061111383836110e9565b9150826002028217905092915050565b61112c82610abd565b67ffffffffffffffff81111561114557611144610bd3565b5b61114f8254610e6e565b61115a828285611096565b600060209050601f83116001811461118d576000841561117b578287015190505b6111858582611107565b8655506111ed565b601f19841661119b86610f77565b60005b828110156111c35784890151825560018201915060208501945060208101905061119e565b868310156111e057848901516111dc601f8916826110e9565b8355505b6001600288020188555050505b50505050505056fea2646970667358221220ac34c6575a789ee047bcf82e3a294f1300aa767a2d35de46092c7a5af6df58cb64736f6c63430008140033",
  "linkReferences": {},
  "deployedLinkReferences": {},
  "address": "0x9fE46736679d2D9a65F0992F2272dE9f3c7fa6e0"
}